:0A03D6004D61747269784B6579007F
:1002FE0012039A7BFF7A0379D67D017F01120326C2
:10030E001200038F22E52260F7FB7A00750C027D46
:08031E00017F0212036780E871
:0403BD008E098F0A0C
:0803C1007F127EEBDEFEDFFC83
:0103C9002211
:0603AE00C2A58F80D2A75A
:0803B4007F027EEFDEFEDFFC9C
:0103BC00221E
:0A03E000C2A61203AEC2A70203B4C6
:10034900CFCDCFCECCCE1201CB7C007D0A1201CB12
:04035900ED2430FF60
:0A035D00D2A61203AEC2A70203B439
:10038400AE07BE0104ED148006BE0209ED243F440D
:0603940080FF1203E022CD
:10039A007F381203E07F0C1203E07F061203E07F2E
:0403AA00010203E069
:0A03EA00AC03120384AF0402035DAC
:060326008B088A09890A18
:10032C00120384E4FDAB08AA09A90A8D8275830027
:0C033C0012018CFF600612035D0D80E9C9
:010348002292
:0C02CB007F0AEA24FFFDE434FFFC7E0003
:0802D7008E0D8F0E8C0F8D10AF
:1002DF007F017E00E4FBEBC39510E50F6480F8749B
:0E02EF008098500AAC0DAD0E1201B90B80E8DC
:0102FD0022DE
:040367008A0A8B0B68
:10036B00120384AA0CEAD39400400D1202CBAC0A00
:08037B00AD0B1203491A80EDDD
:010383002257
:10022000120384C3EA64809480400B7F2B12035D29
:100230008A168B17800E7F2D12035DC3E49BF51782
:10024000E49AF516AA15EAD39400400D1202CBAC3D
:0902500016AD171203491A80EDE6
:010259002282
:04025A008A1A8B1B56
:10025E00120384AA1CEAD3940040297F101202CD07
:10026E00AC1AAD1BCFCDCFCECCCE1201CBEF540FEF
:10027E00FEC3940AEE5004243080022437FF12038A
:04028E005D1A80D1A4
:010292002249
:040293008A1F8B2013
:10029700120384AA21EAD394004028EA24FFFDE44C
:1002A70034FFFC7F027E001202D7AC1FAD20CFCDFA
:1002B700CFCECCCE1201CBEF54012430FF12035D19
:0302C7001A80D2C8
:0102CA002211
:10000300E4F5087590FFC2932097137F02FE120355
:10001300BD3097FD7F147E001203BD750801209645
:10002300147F027E001203BD3095FD7F147E001203
:1000330003BD7508052095147F027E001203BD30B1
:1000430096FD7F147E001203BD7508092094147F6A
:10005300027E001203BD3094FD7F147E001203BDA7
:1000630075080D7590FFC2922097147F027E0012CF
:1000730003BD3097FD7F147E001203BD7508022077
:1000830096147F027E001203BD3095FD7F147E001F
:100093001203BD7508062095147F027E001203BD6E
:1000A3003096FD7F147E001203BD75080A20941458
:1000B3007F027E001203BD3094FD7F147E00120385
:1000C300BD75080E7590FFC2912097147F027E00C4
:1000D3001203BD3097FD7F147E001203BD75080324
:1000E3002096147F027E001203BD3095FD7F147E9F
:1000F300001203BD7508072095147F027E001203CA
:10010300BD3096FD7F147E001203BD75080B20944D
:10011300147F027E001203BD3094FD7F147E001213
:1001230003BD75080F7590FFC2902097147F027E60
:10013300001203BD3097FD7F147E001203BD7508C6
:10014300042096147F027E001203BD3095FD7F14B8
:100153007E001203BD7508082095147F027E0012ED
:1001630003BD3096FD7F147E001203BD75080C207D
:1001730094147F027E001203BD3094FD7F147E0031
:080183001203BD750810AF085E
:01018B002251
:030000000203CA2E
:0C03CA00787FE4F6D8FD7581220202FE67
:10018C00BB010CE58229F582E5833AF583E0225028
:10019C0006E92582F8E622BBFE06E92582F8E22272
:0D01AC00E58229F582E5833AF583E493228C
:1001B900EF8DF0A4A8F0CF8CF0A428CE8DF0A42E5A
:0201C900FE2214
:1001CB00BC000BBE0029EF8DF084FFADF022E4CC18
:1001DB00F875F008EF2FFFEE33FEEC33FCEE9DECE1
:1001EB00984005FCEE9DFE0FD5F0E9E4CEFD22ED27
:1001FB00F8F5F0EE8420D21CFEADF075F008EF2F71
:10020B00FFED33FD4007985006D5F0F222C398FD61
:05021B000FD5F0EA22FE
:00000001FF
