:0402F10002250000E2
:100201001202BA750C03AB26AA257D017F011202E9
:10021100720526E526700205257F0A7E001202A5D9
:10022100750C03AB26AA257D017F0112027280E1C4
:0602CE00C2A58F80D2A73B
:0802D4007F027EEFDEFEDFFC7D
:0102DC0022FF
:0A02DD00C2A61202CEC2A70202D48C
:10025400CFCDCFCECCCE1200427C007D0A1200421C
:04026400ED2430FF56
:0A026800D2A61202CEC2A70202D4F1
:10028F00AE07BE0104ED148006BE0209ED243F4403
:06029F0080FF1202DD22C7
:1002BA007F381202DD7F0C1202DD7F061202DD7F1B
:0402CA00010202DD4E
:0A02E700AC0312028FAF040202689C
:060231008B228A238924C0
:1002370012028FE4FDAB22AA23A9248D82758300C5
:0C024700120003FF60061202680D80E93F
:010253002288
:0C01CE007F0AEA24FFFDE434FFFC7E0001
:0801DA008E0D8F0E8C0F8D10AD
:1001E2007F017E00E4FBEBC39510E50F6480F87499
:0E01F2008098500AAC0DAD0E1200300B80E864
:0102000022DB
:040272008A0A8B0B5E
:1002760012028FAA0CEAD39400400D1201CEAC0AEA
:08028600AD0B1202541A80EDC9
:01028E00224D
:1001230012028FC3EA64809480400B7F2B12026813
:100133008A168B17800E7F2D120268C3E49BF51776
:10014300E49AF516AA15EAD39400400D1201CEAC39
:0901530016AD171202541A80EDDA
:01015C002280
:04015D008A1A8B1B54
:1001610012028FAA1CEAD3940040297F101201D0F9
:10017100AC1AAD1BCFCDCFCECCCE120042EF540F77
:10018100FEC3940AEE5004243080022437FF120289
:04019100681A80D197
:010195002247
:040196008A1F8B2011
:10019A0012028FAA21EAD394004028EA24FFFDE440
:1001AA0034FFFC7F027E001201DAAC1FAD20CFCDF6
:1001BA00CFCECCCE120042EF54012430FF12026897
:0301CA001A80D2C6
:0101CD00220F
:1002A500EF1FAC0670011E4C600A7DC37C8ADCFE24
:0402B500DDFC80EC00
:0102B9002222
:0300000002009764
:0C009700787FE4F6D8FD7581260200DEBB
:10000300BB010CE58229F582E5833AF583E02250B2
:1000130006E92582F8E622BBFE06E92582F8E222FC
:0D002300E58229F582E5833AF583E4932216
:10003000EF8DF0A4A8F0CF8CF0A428CE8DF0A42EE4
:02004000FE229E
:10004200BC000BBE0029EF8DF084FFADF022E4CCA2
:10005200F875F008EF2FFFEE33FEEC33FCEE9DEC6B
:10006200984005FCEE9DFE0FD5F0E9E4CEFD22EDB1
:10007200F8F5F0EE8420D21CFEADF075F008EF2FFB
:10008200FFED33FD4007985006D5F0F222C398FDEC
:050092000FD5F0EA2289
:1000A300020201E493A3F8E493A34003F68001F270
:1000B30008DFF48029E493A3F85407240CC8C3335E
:1000C300C4540F4420C8834004F456800146F6DF2D
:1000D300E4800B01020408102040809002F1E47ECA
:1000E300019360BCA3FF543F30E509541FFEE49322
:1000F300A360010ECF54C025E060A840B8E493A3E9
:10010300FAE493A3F8E493A3C8C582C8CAC583CA13
:10011300F0A3C8C582C8CAC583CADFE9DEE780BECB
:0102F5000008
:00000001FF
