:040464008E098F0A64
:080468007F127EEBDEFEDFFCDB
:010470002269
:06045500C2A58F80D2A7B2
:08045B007F027EEFDEFEDFFCF4
:010463002276
:0A047D00C2A6120455C2A702045BD8
:1003DE00CFCDCFCECCCE1202887C007D0A12028801
:0403EE00ED2430FFCB
:0A03F200D2A6120455C2A702045B54
:10041900AE07BE0104ED148006BE0209ED243F4477
:0604290080FF12047D2299
:10042F007F3812047D7F0C12047D7F0612047D7FBE
:04043F000102047D35
:0A048700AC03120419AF040203F2E3
:0603BB008B088A09890A83
:1003C100120419E4FDAB08AA09A90A8D82758300FC
:0C03D100120249FF60061203F20D80E9E1
:0103DD0022FD
:0C0388007F0AEA24FFFDE434FFFC7E0045
:080394008E0D8F0E8C0F8D10F1
:10039C007F017E00E4FBEBC39510E50F6480F874DD
:0E03AC008098500AAC0DAD0E1202760B80E860
:0103BA002220
:0403FC008A0A8B0BD3
:10040000120419AA0CEAD39400400D120388AC0A16
:08041000AD0B1203DE1A80EDB2
:0104180022C1
:1002DD00120419C3EA64809480400B7F2B1203F241
:1002ED008A168B17800E7F2D1203F2C3E49BF51730
:1002FD00E49AF516AA15EAD39400400D120388ACC2
:09030D0016AD171203DE1A80ED93
:0103160022C4
:040317008A1A8B1B98
:10031B00120419AA1CEAD3940040297F1012038AF5
:10032B00AC1AAD1BCFCDCFCECCCE120288EF540F73
:10033B00FEC3940AEE5004243080022437FF1203CC
:04034B00F21A80D151
:01034F00228B
:040350008A1F8B2055
:10035400120419AA21EAD394004028EA24FFFDE4F8
:1003640034FFFC7F027E00120394AC1FAD20CFCD7E
:10037400CFCECCCE120288EF54012430FF1203F208
:030384001A80D20A
:010387002253
:1004430050617373776F72643A004F4B20004552CB
:02045300520055
:10018C0012042F7BFF7A0479437D017F011203BB9C
:10019C001200038F26E52660F7D3940A5041C3E57D
:1001AC00239404E52294005028AE24AF257C007DD6
:1001BC000A1202768E248F25E52675F00A84E5F066
:1001CC002525F525E43524F5240523E523700205C2
:1001DC0022750C04AB25AA247D017F021203FCE5D9
:1001EC0026640B7036E525B4290DE524B409087B8B
:1001FC00FF7A04794D80067BFF7A0479517D0E7F5E
:10020C00011203BBE4F524F525F522F523750C0446
:10021C00AB25AA247D017F021203FCE526640C6049
:10022C000302019CF524F525F522F523750C04AB8E
:0D023C0025AA247D017F021203FC02019C13
:10000300E4F5087590FFC2932097137FC8FE12048E
:10001300643097FD7F147E001204647508012096F6
:10002300147FC87E001204643095FD7F147E001295
:1000330004647508052095147FC87E00120464309B
:1000430096FD7F147E001204647508092094147FC2
:10005300C87E001204643094FD7F147E0012046491
:1000630075080D7590FFC2922097147FC87E001209
:1000730004643097FD7F147E001204647508022027
:1000830096147FC87E001204643095FD7F147E00B1
:100093001204647508062095147FC87E0012046458
:1000A3003096FD7F147E0012046475080A209414B0
:1000B3007FC87E001204643094FD7F147E00120416
:1000C3006475080E7590FFC2912097147FC87E0057
:1000D3001204643097FD7F147E00120464750803D4
:1000E3002096147FC87E001204643095FD7F147E31
:1000F300001204647508072095147FC87E0012045B
:10010300643096FD7F147E0012046475080B2094FE
:10011300147FC87E001204643094FD7F147E0012A5
:10012300046475080F7590FFC2902097147FC87EF2
:10013300001204643097FD7F147E00120464750876
:10014300042096147FC87E001204643095FD7F144A
:100153007E001204647508082095147FC87E00127F
:1001630004643096FD7F147E0012046475080C202D
:1001730094147FC87E001204643094FD7F147E00C3
:08018300120464750810AF08B6
:01018B002251
:0300000002047186
:0C047100787FE4F6D8FD75812602018C2E
:10024900BB010CE58229F582E5833AF583E022506A
:1002590006E92582F8E622BBFE06E92582F8E222B4
:0D026900E58229F582E5833AF583E49322CE
:10027600EF8DF0A4A8F0CF8CF0A428CE8DF0A42E9C
:02028600FE2256
:10028800BC000BBE0029EF8DF084FFADF022E4CC5A
:10029800F875F008EF2FFFEE33FEEC33FCEE9DEC23
:1002A800984005FCEE9DFE0FD5F0E9E4CEFD22ED69
:1002B800F8F5F0EE8420D21CFEADF075F008EF2FB3
:1002C800FFED33FD4007985006D5F0F222C398FDA4
:0502D8000FD5F0EA2241
:00000001FF
