:1000C80075A0FE1200F412000E8F0AE50A60F7B45C
:1000D80001F4050CE50C7002050BC39402E50B64F2
:0C00E80080948040E1E4F50BF50C80DA18
:03000B0002006F81
:0B006F00C0E0C0D075D000C000C0078A
:10007A00758A66758CFC0509E50970020508C39442
:10008A00F4E5089401402E750800750900E50C4551
:10009A000B700DAFA07801EF08800123D8FDF5A001
:1000AA00E50C6401450B700DAFA07801EF088001E3
:0500BA0003D8FDF5A0D4
:0900BF00D007D000D0D0D0E0320F
:1000F4005389F0438901758A66758CFCC28DD28C54
:100104005389F0438901C28DD28CD2A9D2AFC2B92E
:0101140022C8
:10000E00E4F50D20B1137F14FE12011530B1FD7F02
:10001E00147E00120115750D0120B0147F147E00A0
:10002E0012011530B0FD7F147E00120115750D0200
:10003E0020B2147F147E0012011530B2FD7F147EA3
:10004E0000120115750D0320B3147F147E001201EA
:10005E001530B3FD7F147E00120115750D04AF0D22
:01006E00226F
:10011500EF1FAC0670011E4C600A7D027CEFDCFE11
:04012500DDFC80EC91
:0101290022B3
:0300000002012AD0
:0C012A00787FE4F6D8FD75810D0200C856
:00000001FF
