:07027400436C6F636B3A005D
:1002330012021F7BFF7A0279747D017F011201751F
:0202430080FE3B
:10020A00EF1FAC0670011E4C600A7DC37C8ADCFEBF
:04021A00DDFC80EC9B
:01021E0022BD
:06024500C2A58F80D2A7C4
:08024B007F027EEFDEFEDFFC06
:010253002288
:0A026000C2A6120245C2A702024B1B
:1001B900CFCDCFCECCCE1200427C007D0A120042B8
:0401C900ED2430FFF2
:0A01CD00D2A6120245C2A702024B9F
:1001F400AE07BE0104ED148006BE0209ED243F449F
:0602040080FF12026022DF
:10021F007F381202607F0C1202607F061202607F2D
:04022F000102026066
:0A026A00AC031201F4AF040201CD51
:060175008B228A2389247D
:10017B001201F4E4FDAB22AA23A9248D827583001E
:0C018B00120003FF60061201CD0D80E998
:010197002245
:0C0142007F0AEA24FFFDE434FFFC7E008D
:08014E008E1E8F1F8C208D21F5
:100156007F017E00E4FBEBC39521E5206480F87403
:0E0166008098500AAC1EAD1F1200300B80E8CE
:010174002268
:0401D7008A118B12EC
:1001DB001201F4AA13EAD39400400D120142AC11A0
:0801EB00AD121201B91A80EDFA
:0101F30022E9
:100097001201F4C3EA64809480400B7F2B1201CDD8
:1000A7008A0D8B0E800E7F2D1201CDC3E49BF50EBA
:1000B700E49AF50DAA0CEAD39400400D120142AC64
:0900C7000DAD0E1201B91A80ED15
:0100D000220D
:0400D1008A168B17E9
:1000D5001201F4AA18EAD3940040297F10120144B2
:1000E500AC16AD17CFCDCFCECCCE120042EF540F0C
:1000F500FEC3940AEE5004243080022437FF120117
:04010500CD1A80D1BE
:0101090022D3
:04010A008A1B8B1CA5
:10010E001201F4AA1DEAD394004028EA24FFFDE46C
:10011E0034FFFC7F027E0012014EAC1BAD1CCFCD16
:10012E00CFCECCCE120042EF54012430FF1201CDBF
:03013E001A80D252
:01014100229B
:100198005389F0438901758A66758CFCC28DD28CAF
:1001A8005389F0438901C28DD28CD2A9D2AFC2B98A
:0101B8002224
:03000000020254A5
:0C025400787FE4F6D8FD758124020233A7
:10000300BB010CE58229F582E5833AF583E02250B2
:1000130006E92582F8E622BBFE06E92582F8E222FC
:0D002300E58229F582E5833AF583E4932216
:10003000EF8DF0A4A8F0CF8CF0A428CE8DF0A42EE4
:02004000FE229E
:10004200BC000BBE0029EF8DF084FFADF022E4CCA2
:10005200F875F008EF2FFFEE33FEEC33FCEE9DEC6B
:10006200984005FCEE9DFE0FD5F0E9E4CEFD22EDB1
:10007200F8F5F0EE8420D21CFEADF075F008EF2FFB
:10008200FFED33FD4007985006D5F0F222C398FDEC
:050092000FD5F0EA2289
:00000001FF
